{
  "contractName": "Identity",
  "abi": [
    {
      "inputs": [],
      "stateMutability": "nonpayable",
      "type": "constructor"
    },
    {
      "anonymous": false,
      "inputs": [
        {
          "indexed": true,
          "internalType": "uint256",
          "name": "executionId",
          "type": "uint256"
        },
        {
          "indexed": false,
          "internalType": "bool",
          "name": "approved",
          "type": "bool"
        }
      ],
      "name": "Approved",
      "type": "event"
    },
    {
      "anonymous": false,
      "inputs": [
        {
          "indexed": true,
          "internalType": "bytes32",
          "name": "claimId",
          "type": "bytes32"
        },
        {
          "indexed": false,
          "internalType": "bytes32",
          "name": "claimName",
          "type": "bytes32"
        },
        {
          "indexed": true,
          "internalType": "uint256",
          "name": "claimType",
          "type": "uint256"
        },
        {
          "indexed": false,
          "internalType": "uint256",
          "name": "scheme",
          "type": "uint256"
        },
        {
          "indexed": true,
          "internalType": "address",
          "name": "issuer",
          "type": "address"
        },
        {
          "indexed": false,
          "internalType": "bytes",
          "name": "signature",
          "type": "bytes"
        },
        {
          "indexed": false,
          "internalType": "bytes",
          "name": "data",
          "type": "bytes"
        },
        {
          "indexed": false,
          "internalType": "string",
          "name": "uri",
          "type": "string"
        },
        {
          "indexed": false,
          "internalType": "string",
          "name": "issuerName",
          "type": "string"
        }
      ],
      "name": "ClaimAdded",
      "type": "event"
    },
    {
      "anonymous": false,
      "inputs": [
        {
          "indexed": true,
          "internalType": "bytes32",
          "name": "claimId",
          "type": "bytes32"
        },
        {
          "indexed": true,
          "internalType": "uint256",
          "name": "claimType",
          "type": "uint256"
        },
        {
          "indexed": true,
          "internalType": "address",
          "name": "issuer",
          "type": "address"
        },
        {
          "indexed": false,
          "internalType": "uint256",
          "name": "signatureType",
          "type": "uint256"
        },
        {
          "indexed": false,
          "internalType": "bytes32",
          "name": "signature",
          "type": "bytes32"
        },
        {
          "indexed": false,
          "internalType": "bytes",
          "name": "claim",
          "type": "bytes"
        },
        {
          "indexed": false,
          "internalType": "string",
          "name": "uri",
          "type": "string"
        }
      ],
      "name": "ClaimAdded",
      "type": "event"
    },
    {
      "anonymous": false,
      "inputs": [
        {
          "indexed": true,
          "internalType": "bytes32",
          "name": "claimId",
          "type": "bytes32"
        },
        {
          "indexed": false,
          "internalType": "address",
          "name": "claimer",
          "type": "address"
        },
        {
          "indexed": false,
          "internalType": "bytes32",
          "name": "claimName",
          "type": "bytes32"
        },
        {
          "indexed": true,
          "internalType": "uint256",
          "name": "claimType",
          "type": "uint256"
        },
        {
          "indexed": false,
          "internalType": "uint256",
          "name": "scheme",
          "type": "uint256"
        },
        {
          "indexed": true,
          "internalType": "address",
          "name": "issuer",
          "type": "address"
        },
        {
          "indexed": false,
          "internalType": "bytes",
          "name": "signature",
          "type": "bytes"
        },
        {
          "indexed": false,
          "internalType": "bytes",
          "name": "data",
          "type": "bytes"
        },
        {
          "indexed": false,
          "internalType": "string",
          "name": "uri",
          "type": "string"
        },
        {
          "indexed": false,
          "internalType": "string",
          "name": "issuerName",
          "type": "string"
        }
      ],
      "name": "ClaimIssued",
      "type": "event"
    },
    {
      "anonymous": false,
      "inputs": [
        {
          "indexed": true,
          "internalType": "address",
          "name": "claimer",
          "type": "address"
        }
      ],
      "name": "ClaimIssuerAdded",
      "type": "event"
    },
    {
      "anonymous": false,
      "inputs": [
        {
          "indexed": true,
          "internalType": "bytes32",
          "name": "claimId",
          "type": "bytes32"
        },
        {
          "indexed": false,
          "internalType": "bytes32",
          "name": "claimName",
          "type": "bytes32"
        },
        {
          "indexed": true,
          "internalType": "uint256",
          "name": "claimType",
          "type": "uint256"
        },
        {
          "indexed": false,
          "internalType": "uint256",
          "name": "scheme",
          "type": "uint256"
        },
        {
          "indexed": true,
          "internalType": "address",
          "name": "issuer",
          "type": "address"
        },
        {
          "indexed": false,
          "internalType": "bytes",
          "name": "signature",
          "type": "bytes"
        },
        {
          "indexed": false,
          "internalType": "bytes",
          "name": "data",
          "type": "bytes"
        },
        {
          "indexed": false,
          "internalType": "string",
          "name": "uri",
          "type": "string"
        },
        {
          "indexed": false,
          "internalType": "string",
          "name": "issuerName",
          "type": "string"
        }
      ],
      "name": "ClaimRemoved",
      "type": "event"
    },
    {
      "anonymous": false,
      "inputs": [
        {
          "indexed": true,
          "internalType": "bytes32",
          "name": "claimId",
          "type": "bytes32"
        },
        {
          "indexed": false,
          "internalType": "bytes32",
          "name": "claimName",
          "type": "bytes32"
        },
        {
          "indexed": true,
          "internalType": "uint256",
          "name": "claimType",
          "type": "uint256"
        },
        {
          "indexed": false,
          "internalType": "uint256",
          "name": "scheme",
          "type": "uint256"
        },
        {
          "indexed": true,
          "internalType": "address",
          "name": "issuer",
          "type": "address"
        },
        {
          "indexed": false,
          "internalType": "bytes",
          "name": "signature",
          "type": "bytes"
        },
        {
          "indexed": false,
          "internalType": "bytes",
          "name": "data",
          "type": "bytes"
        },
        {
          "indexed": false,
          "internalType": "string",
          "name": "uri",
          "type": "string"
        }
      ],
      "name": "ClaimRemoved",
      "type": "event"
    },
    {
      "anonymous": false,
      "inputs": [
        {
          "indexed": true,
          "internalType": "bytes32",
          "name": "claimId",
          "type": "bytes32"
        },
        {
          "indexed": false,
          "internalType": "bytes32",
          "name": "claimName",
          "type": "bytes32"
        },
        {
          "indexed": true,
          "internalType": "uint256",
          "name": "claimType",
          "type": "uint256"
        },
        {
          "indexed": false,
          "internalType": "uint256",
          "name": "scheme",
          "type": "uint256"
        },
        {
          "indexed": true,
          "internalType": "address",
          "name": "issuer",
          "type": "address"
        },
        {
          "indexed": false,
          "internalType": "bytes",
          "name": "signature",
          "type": "bytes"
        },
        {
          "indexed": false,
          "internalType": "bytes",
          "name": "data",
          "type": "bytes"
        },
        {
          "indexed": false,
          "internalType": "string",
          "name": "uri",
          "type": "string"
        },
        {
          "indexed": false,
          "internalType": "string",
          "name": "issuerName",
          "type": "string"
        }
      ],
      "name": "ClaimRequested",
      "type": "event"
    },
    {
      "anonymous": false,
      "inputs": [
        {
          "indexed": true,
          "internalType": "uint256",
          "name": "claimRequestId",
          "type": "uint256"
        },
        {
          "indexed": true,
          "internalType": "uint256",
          "name": "claimType",
          "type": "uint256"
        },
        {
          "indexed": false,
          "internalType": "uint256",
          "name": "scheme",
          "type": "uint256"
        },
        {
          "indexed": true,
          "internalType": "address",
          "name": "issuer",
          "type": "address"
        },
        {
          "indexed": false,
          "internalType": "bytes",
          "name": "signature",
          "type": "bytes"
        },
        {
          "indexed": false,
          "internalType": "bytes",
          "name": "data",
          "type": "bytes"
        },
        {
          "indexed": false,
          "internalType": "string",
          "name": "uri",
          "type": "string"
        }
      ],
      "name": "ClaimRequested",
      "type": "event"
    },
    {
      "anonymous": false,
      "inputs": [
        {
          "indexed": true,
          "internalType": "uint256",
          "name": "executionId",
          "type": "uint256"
        },
        {
          "indexed": true,
          "internalType": "address",
          "name": "to",
          "type": "address"
        },
        {
          "indexed": true,
          "internalType": "uint256",
          "name": "value",
          "type": "uint256"
        },
        {
          "indexed": false,
          "internalType": "bytes",
          "name": "data",
          "type": "bytes"
        }
      ],
      "name": "Executed",
      "type": "event"
    },
    {
      "anonymous": false,
      "inputs": [
        {
          "indexed": true,
          "internalType": "uint256",
          "name": "executionId",
          "type": "uint256"
        },
        {
          "indexed": true,
          "internalType": "address",
          "name": "to",
          "type": "address"
        },
        {
          "indexed": true,
          "internalType": "uint256",
          "name": "value",
          "type": "uint256"
        },
        {
          "indexed": false,
          "internalType": "bytes",
          "name": "data",
          "type": "bytes"
        }
      ],
      "name": "ExecutionRequested",
      "type": "event"
    },
    {
      "anonymous": false,
      "inputs": [
        {
          "indexed": true,
          "internalType": "address",
          "name": "key",
          "type": "address"
        },
        {
          "indexed": true,
          "internalType": "uint256",
          "name": "purpose",
          "type": "uint256"
        }
      ],
      "name": "KeyAdded",
      "type": "event"
    },
    {
      "anonymous": false,
      "inputs": [
        {
          "indexed": true,
          "internalType": "address",
          "name": "key",
          "type": "address"
        },
        {
          "indexed": true,
          "internalType": "uint256",
          "name": "purpose",
          "type": "uint256"
        },
        {
          "indexed": true,
          "internalType": "uint256",
          "name": "keyType",
          "type": "uint256"
        }
      ],
      "name": "KeyAdded",
      "type": "event"
    },
    {
      "anonymous": false,
      "inputs": [
        {
          "indexed": false,
          "internalType": "bool",
          "name": "length",
          "type": "bool"
        }
      ],
      "name": "KeyHolderLength",
      "type": "event"
    },
    {
      "anonymous": false,
      "inputs": [
        {
          "indexed": true,
          "internalType": "address",
          "name": "key",
          "type": "address"
        },
        {
          "indexed": true,
          "internalType": "uint256",
          "name": "purpose",
          "type": "uint256"
        }
      ],
      "name": "KeyRemoved",
      "type": "event"
    },
    {
      "anonymous": false,
      "inputs": [
        {
          "indexed": true,
          "internalType": "address",
          "name": "key",
          "type": "address"
        },
        {
          "indexed": true,
          "internalType": "uint256",
          "name": "purpose",
          "type": "uint256"
        },
        {
          "indexed": true,
          "internalType": "uint256",
          "name": "keyType",
          "type": "uint256"
        }
      ],
      "name": "KeyRemoved",
      "type": "event"
    },
    {
      "anonymous": false,
      "inputs": [
        {
          "indexed": true,
          "internalType": "bytes32",
          "name": "claimId",
          "type": "bytes32"
        },
        {
          "indexed": false,
          "internalType": "bytes32",
          "name": "preReqId",
          "type": "bytes32"
        }
      ],
      "name": "PreReqAdded",
      "type": "event"
    },
    {
      "anonymous": false,
      "inputs": [
        {
          "indexed": false,
          "internalType": "address",
          "name": "recoveredAddress",
          "type": "address"
        }
      ],
      "name": "RecoveredAddress",
      "type": "event"
    },
    {
      "anonymous": false,
      "inputs": [
        {
          "indexed": true,
          "internalType": "bytes32",
          "name": "email",
          "type": "bytes32"
        },
        {
          "indexed": true,
          "internalType": "address",
          "name": "userAddres",
          "type": "address"
        },
        {
          "indexed": false,
          "internalType": "uint256",
          "name": "publicKey",
          "type": "uint256"
        },
        {
          "indexed": true,
          "internalType": "bool",
          "name": "status",
          "type": "bool"
        }
      ],
      "name": "userManipulated",
      "type": "event"
    },
    {
      "anonymous": false,
      "inputs": [
        {
          "indexed": false,
          "internalType": "string",
          "name": "message",
          "type": "string"
        }
      ],
      "name": "userNotRegistered",
      "type": "event"
    },
    {
      "inputs": [],
      "name": "administrator",
      "outputs": [
        {
          "internalType": "address",
          "name": "",
          "type": "address"
        }
      ],
      "stateMutability": "view",
      "type": "function"
    },
    {
      "inputs": [
        {
          "internalType": "bytes32",
          "name": "_username",
          "type": "bytes32"
        },
        {
          "internalType": "bool",
          "name": "_status",
          "type": "bool"
        }
      ],
      "name": "changeStatus",
      "outputs": [],
      "stateMutability": "payable",
      "type": "function"
    },
    {
      "inputs": [
        {
          "internalType": "bytes32",
          "name": "_username",
          "type": "bytes32"
        }
      ],
      "name": "getPublicKey",
      "outputs": [
        {
          "internalType": "uint256",
          "name": "",
          "type": "uint256"
        }
      ],
      "stateMutability": "view",
      "type": "function"
    },
    {
      "inputs": [
        {
          "internalType": "bytes32",
          "name": "_username",
          "type": "bytes32"
        }
      ],
      "name": "getUser",
      "outputs": [
        {
          "internalType": "address",
          "name": "_address",
          "type": "address"
        },
        {
          "internalType": "uint256",
          "name": "_pubKey",
          "type": "uint256"
        },
        {
          "internalType": "bytes32",
          "name": "_id",
          "type": "bytes32"
        },
        {
          "internalType": "bool",
          "name": "_status",
          "type": "bool"
        }
      ],
      "stateMutability": "view",
      "type": "function"
    },
    {
      "inputs": [
        {
          "internalType": "bytes32",
          "name": "_username",
          "type": "bytes32"
        }
      ],
      "name": "isUser",
      "outputs": [
        {
          "internalType": "bool",
          "name": "result",
          "type": "bool"
        }
      ],
      "stateMutability": "view",
      "type": "function"
    },
    {
      "inputs": [
        {
          "internalType": "bytes32",
          "name": "_username",
          "type": "bytes32"
        },
        {
          "internalType": "uint256",
          "name": "_publicKey",
          "type": "uint256"
        },
        {
          "internalType": "address",
          "name": "_userAddress",
          "type": "address"
        },
        {
          "internalType": "bool",
          "name": "_status",
          "type": "bool"
        }
      ],
      "name": "signUp",
      "outputs": [],
      "stateMutability": "payable",
      "type": "function"
    },
    {
      "inputs": [
        {
          "internalType": "address",
          "name": "_address",
          "type": "address"
        },
        {
          "internalType": "uint256",
          "name": "_purpose",
          "type": "uint256"
        }
      ],
      "name": "addKey",
      "outputs": [
        {
          "internalType": "bool",
          "name": "success",
          "type": "bool"
        }
      ],
      "stateMutability": "nonpayable",
      "type": "function"
    },
    {
      "inputs": [
        {
          "internalType": "address",
          "name": "_key",
          "type": "address"
        }
      ],
      "name": "getKey",
      "outputs": [
        {
          "internalType": "uint256",
          "name": "purpose",
          "type": "uint256"
        },
        {
          "internalType": "address",
          "name": "addr",
          "type": "address"
        }
      ],
      "stateMutability": "view",
      "type": "function"
    },
    {
      "inputs": [
        {
          "internalType": "uint256",
          "name": "_purpose",
          "type": "uint256"
        }
      ],
      "name": "getKeysByPurpose",
      "outputs": [
        {
          "internalType": "address[]",
          "name": "keysPurpose",
          "type": "address[]"
        }
      ],
      "stateMutability": "view",
      "type": "function"
    },
    {
      "inputs": [
        {
          "internalType": "address",
          "name": "_key",
          "type": "address"
        }
      ],
      "name": "getKeyPurpose",
      "outputs": [
        {
          "internalType": "uint256",
          "name": "_purpose",
          "type": "uint256"
        }
      ],
      "stateMutability": "view",
      "type": "function"
    },
    {
      "inputs": [
        {
          "internalType": "address",
          "name": "_key",
          "type": "address"
        }
      ],
      "name": "removeKey",
      "outputs": [
        {
          "internalType": "bool",
          "name": "success",
          "type": "bool"
        }
      ],
      "stateMutability": "nonpayable",
      "type": "function"
    },
    {
      "inputs": [
        {
          "internalType": "address",
          "name": "_issuer",
          "type": "address"
        }
      ],
      "name": "addIssuer",
      "outputs": [
        {
          "internalType": "address",
          "name": "issuer",
          "type": "address"
        }
      ],
      "stateMutability": "nonpayable",
      "type": "function"
    },
    {
      "inputs": [
        {
          "internalType": "address",
          "name": "_issuer",
          "type": "address"
        }
      ],
      "name": "removeIssuer",
      "outputs": [
        {
          "internalType": "address",
          "name": "issuer",
          "type": "address"
        }
      ],
      "stateMutability": "nonpayable",
      "type": "function"
    },
    {
      "inputs": [
        {
          "internalType": "address",
          "name": "_issuer",
          "type": "address"
        }
      ],
      "name": "isIssuer",
      "outputs": [
        {
          "internalType": "bool",
          "name": "result",
          "type": "bool"
        }
      ],
      "stateMutability": "view",
      "type": "function"
    },
    {
      "inputs": [
        {
          "internalType": "bytes32",
          "name": "_claimName",
          "type": "bytes32"
        },
        {
          "internalType": "uint256",
          "name": "_claimType",
          "type": "uint256"
        },
        {
          "internalType": "uint256",
          "name": "_scheme",
          "type": "uint256"
        },
        {
          "internalType": "address",
          "name": "_issuer",
          "type": "address"
        },
        {
          "internalType": "bytes",
          "name": "_signature",
          "type": "bytes"
        },
        {
          "internalType": "bytes",
          "name": "_data",
          "type": "bytes"
        },
        {
          "internalType": "string",
          "name": "_uri",
          "type": "string"
        },
        {
          "internalType": "string",
          "name": "_issuerName",
          "type": "string"
        }
      ],
      "name": "addClaim",
      "outputs": [
        {
          "internalType": "bytes32",
          "name": "_claimId",
          "type": "bytes32"
        }
      ],
      "stateMutability": "nonpayable",
      "type": "function"
    },
    {
      "inputs": [
        {
          "internalType": "bytes32",
          "name": "_claimName",
          "type": "bytes32"
        }
      ],
      "name": "getClaimIdByName",
      "outputs": [
        {
          "internalType": "bytes32",
          "name": "claimId",
          "type": "bytes32"
        }
      ],
      "stateMutability": "view",
      "type": "function"
    },
    {
      "inputs": [
        {
          "internalType": "bytes32",
          "name": "_claimId",
          "type": "bytes32"
        },
        {
          "internalType": "bytes32",
          "name": "_preReqId",
          "type": "bytes32"
        }
      ],
      "name": "addPreRequistesClaim",
      "outputs": [
        {
          "internalType": "bytes32[]",
          "name": "preReqIds",
          "type": "bytes32[]"
        }
      ],
      "stateMutability": "nonpayable",
      "type": "function"
    },
    {
      "inputs": [
        {
          "internalType": "bytes32",
          "name": "_claimId",
          "type": "bytes32"
        }
      ],
      "name": "getPreRequisiteIds",
      "outputs": [
        {
          "internalType": "bytes32[]",
          "name": "preReqIds",
          "type": "bytes32[]"
        }
      ],
      "stateMutability": "view",
      "type": "function"
    },
    {
      "inputs": [
        {
          "internalType": "bytes32",
          "name": "claimId",
          "type": "bytes32"
        }
      ],
      "name": "getClaim",
      "outputs": [
        {
          "internalType": "bytes32",
          "name": "claimName",
          "type": "bytes32"
        },
        {
          "internalType": "uint256",
          "name": "claimType",
          "type": "uint256"
        },
        {
          "internalType": "uint256",
          "name": "scheme",
          "type": "uint256"
        },
        {
          "internalType": "address",
          "name": "issuer",
          "type": "address"
        },
        {
          "internalType": "bytes",
          "name": "signature",
          "type": "bytes"
        },
        {
          "internalType": "bytes",
          "name": "data",
          "type": "bytes"
        },
        {
          "internalType": "string",
          "name": "uri",
          "type": "string"
        },
        {
          "internalType": "string",
          "name": "issuerName",
          "type": "string"
        }
      ],
      "stateMutability": "view",
      "type": "function"
    },
    {
      "inputs": [
        {
          "internalType": "uint256",
          "name": "_claimType",
          "type": "uint256"
        }
      ],
      "name": "getClaimIdsByType",
      "outputs": [
        {
          "internalType": "bytes32[]",
          "name": "claimIds",
          "type": "bytes32[]"
        }
      ],
      "stateMutability": "view",
      "type": "function"
    },
    {
      "inputs": [
        {
          "internalType": "bytes32",
          "name": "_claimId",
          "type": "bytes32"
        }
      ],
      "name": "removeClaim",
      "outputs": [
        {
          "internalType": "bool",
          "name": "success",
          "type": "bool"
        }
      ],
      "stateMutability": "nonpayable",
      "type": "function"
    },
    {
      "inputs": [
        {
          "internalType": "bytes32",
          "name": "_claimId",
          "type": "bytes32"
        },
        {
          "internalType": "bytes32",
          "name": "_username",
          "type": "bytes32"
        },
        {
          "internalType": "address",
          "name": "_claimer",
          "type": "address"
        }
      ],
      "name": "issueClaim",
      "outputs": [
        {
          "internalType": "bool",
          "name": "success",
          "type": "bool"
        }
      ],
      "stateMutability": "nonpayable",
      "type": "function"
    },
    {
      "inputs": [
        {
          "internalType": "bytes32",
          "name": "_claimId",
          "type": "bytes32"
        }
      ],
      "name": "claimHasPreReq",
      "outputs": [
        {
          "internalType": "bool",
          "name": "result",
          "type": "bool"
        }
      ],
      "stateMutability": "view",
      "type": "function"
    },
    {
      "inputs": [
        {
          "internalType": "bytes32",
          "name": "_claimId",
          "type": "bytes32"
        }
      ],
      "name": "getClaimHolders",
      "outputs": [
        {
          "internalType": "address[]",
          "name": "addresses",
          "type": "address[]"
        }
      ],
      "stateMutability": "view",
      "type": "function"
    },
    {
      "inputs": [
        {
          "internalType": "bytes32",
          "name": "_claimId",
          "type": "bytes32"
        },
        {
          "internalType": "address",
          "name": "_claimer",
          "type": "address"
        }
      ],
      "name": "claimIsValid",
      "outputs": [
        {
          "internalType": "bool",
          "name": "result",
          "type": "bool"
        }
      ],
      "stateMutability": "nonpayable",
      "type": "function"
    }
  ],
  "bytecode": "0x60806040523480156200001157600080fd5b50336000806101000a81548173ffffffffffffffffffffffffffffffffffffffff021916908373ffffffffffffffffffffffffffffffffffffffff16021790555033600e60006101000a81548173ffffffffffffffffffffffffffffffffffffffff021916908373ffffffffffffffffffffffffffffffffffffffff160217905550620000a6336001620004ea60201b60201c565b5060003360405160200180807f54657374000000000000000000000000000000000000000000000000000000008152506004018273ffffffffffffffffffffffffffffffffffffffff1673ffffffffffffffffffffffffffffffffffffffff1660601b8152601401807f300000000000000000000000000000000000000000000000000000000000000081525060010191505060405160208183030381529060405280519060200120905060405180610100016040528060405160200180807f5465737420436c61696d00000000000000000000000000000000000000000000815250600a01905060405160208183030381529060405280519060200120815260200160008152602001600081526020013373ffffffffffffffffffffffffffffffffffffffff1681526020016040518060200160405280600081525081526020016040518060200160405280600081525081526020016040518060400160405280600e81526020017f556e757361626c6520636c61696d00000000000000000000000000000000000081525081526020016040518060400160405280600d81526020017f41646d696e6973747261746f72000000000000000000000000000000000000008152508152506004600083815260200190815260200160002060008201518160000155602082015181600101556040820151816002015560608201518160030160006101000a81548173ffffffffffffffffffffffffffffffffffffffff021916908373ffffffffffffffffffffffffffffffffffffffff16021790555060808201518160040190805190602001906200030792919062000998565b5060a08201518160050190805190602001906200032692919062000998565b5060c08201518160060190805190602001906200034592919062000a1f565b5060e08201518160070190805190602001906200036492919062000a1f565b5090505060056000808152602001908152602001600020805490506006600033604051602001808273ffffffffffffffffffffffffffffffffffffffff1673ffffffffffffffffffffffffffffffffffffffff1660601b8152601401807f30000000000000000000000000000000000000000000000000000000000000008152506001019150506040516020818303038152906040528051906020012081526020019081526020016000208190555060056000808152602001908152602001600020819080600181540180825580915050600190039060005260206000200160009091909190915055600d6000828152602001908152602001600020600e60009054906101000a900473ffffffffffffffffffffffffffffffffffffffff169080600181540180825580915050600190039060005260206000200160009091909190916101000a81548173ffffffffffffffffffffffffffffffffffffffff021916908373ffffffffffffffffffffffffffffffffffffffff1602179055505062000ace565b6000600e60009054906101000a900473ffffffffffffffffffffffffffffffffffffffff1673ffffffffffffffffffffffffffffffffffffffff163373ffffffffffffffffffffffffffffffffffffffff1614620005b0576040517f08c379a00000000000000000000000000000000000000000000000000000000081526004018080602001828103825260138152602001807f53656e646572206973206e6f742061646d696e0000000000000000000000000081525060200191505060405180910390fd5b6000600260008573ffffffffffffffffffffffffffffffffffffffff1673ffffffffffffffffffffffffffffffffffffffff168152602001908152602001600020600001541462000669576040517f08c379a00000000000000000000000000000000000000000000000000000000081526004018080602001828103825260128152602001807f4b657920416c726561647920457869737473000000000000000000000000000081525060200191505060405180910390fd5b6000821415620006e1576040517f08c379a000000000000000000000000000000000000000000000000000000000815260040180806020018281038252601c8152602001807f4b657920507572706f73652030206973206e6f7420616c6c6f7765640000000081525060200191505060405180910390fd5b82600260008573ffffffffffffffffffffffffffffffffffffffff1673ffffffffffffffffffffffffffffffffffffffff16815260200190815260200160002060010160006101000a81548173ffffffffffffffffffffffffffffffffffffffff021916908373ffffffffffffffffffffffffffffffffffffffff16021790555081600260008573ffffffffffffffffffffffffffffffffffffffff1673ffffffffffffffffffffffffffffffffffffffff168152602001908152602001600020600001819055506003600083815260200190815260200160002080549050600660008585604051602001808373ffffffffffffffffffffffffffffffffffffffff1673ffffffffffffffffffffffffffffffffffffffff1660601b8152601401828152602001925050506040516020818303038152906040528051906020012081526020019081526020016000208190555060036000838152602001908152602001600020839080600181540180825580915050600190039060005260206000200160009091909190916101000a81548173ffffffffffffffffffffffffffffffffffffffff021916908373ffffffffffffffffffffffffffffffffffffffff160217905550818373ffffffffffffffffffffffffffffffffffffffff167f7d958a859734aa5212d2568f8700fe77619bc93d5b08abf1445585bac8bff60660405160405180910390a36003821480156200093f57506000600b60008573ffffffffffffffffffffffffffffffffffffffff1673ffffffffffffffffffffffffffffffffffffffff16815260200190815260200160002060000154145b156200098e576001600b60008573ffffffffffffffffffffffffffffffffffffffff1673ffffffffffffffffffffffffffffffffffffffff168152602001908152602001600020600001819055505b6001905092915050565b828054600181600116156101000203166002900490600052602060002090601f016020900481019282601f10620009db57805160ff191683800117855562000a0c565b8280016001018555821562000a0c579182015b8281111562000a0b578251825591602001919060010190620009ee565b5b50905062000a1b919062000aa6565b5090565b828054600181600116156101000203166002900490600052602060002090601f016020900481019282601f1062000a6257805160ff191683800117855562000a93565b8280016001018555821562000a93579182015b8281111562000a9257825182559160200191906001019062000a75565b5b50905062000aa2919062000aa6565b5090565b62000acb91905b8082111562000ac757600081600090555060010162000aad565b5090565b90565b614f9e8062000ade6000396000f3fe6080604052600436106101665760003560e01c8063877b9a67116100d1578063b5c94c591161008a578063d830231911610064578063d830231914610f53578063e0e1855414610fe3578063e7adcfa414611048578063f53d0a8e1461108257610166565b8063b5c94c5914610c30578063c8f419fc14610cc0578063c9100bcb14610d1357610166565b8063877b9a67146106fd5780639010f7261461076657806393790f44146107f6578063a2d39bdb1461088e578063aa6fc5ae14610901578063b1c551ca14610be157610166565b80634eee424a116101235780634eee424a146104715780636517579c146104c4578063672626571461055857806367b7f626146105f257806369e7849914610641578063760bb006146106aa57610166565b80630e122e9e1461016b578063185f4cc0146101cf57806320694db014610242578063262b54f5146102d3578063307a8de31461036357806347bc7093146103e0575b600080fd5b6101cd6004803603608081101561018157600080fd5b810190808035906020019092919080359060200190929190803573ffffffffffffffffffffffffffffffffffffffff1690602001909291908035151590602001909291905050506110d9565b005b3480156101db57600080fd5b50610228600480360360408110156101f257600080fd5b8101908080359060200190929190803573ffffffffffffffffffffffffffffffffffffffff1690602001909291905050506112f9565b604051808215151515815260200191505060405180910390f35b34801561024e57600080fd5b506102916004803603602081101561026557600080fd5b81019080803573ffffffffffffffffffffffffffffffffffffffff169060200190929190505050611801565b604051808273ffffffffffffffffffffffffffffffffffffffff1673ffffffffffffffffffffffffffffffffffffffff16815260200191505060405180910390f35b3480156102df57600080fd5b5061030c600480360360208110156102f657600080fd5b81019080803590602001909291905050506119d5565b6040518080602001828103825283818151815260200191508051906020019060200280838360005b8381101561034f578082015181840152602081019050610334565b505050509050019250505060405180910390f35b34801561036f57600080fd5b506103c66004803603606081101561038657600080fd5b810190808035906020019092919080359060200190929190803573ffffffffffffffffffffffffffffffffffffffff169060200190929190505050611a40565b604051808215151515815260200191505060405180910390f35b3480156103ec57600080fd5b5061042f6004803603602081101561040357600080fd5b81019080803573ffffffffffffffffffffffffffffffffffffffff169060200190929190505050612383565b604051808273ffffffffffffffffffffffffffffffffffffffff1673ffffffffffffffffffffffffffffffffffffffff16815260200191505060405180910390f35b34801561047d57600080fd5b506104aa6004803603602081101561049457600080fd5b8101908080359060200190929190505050612599565b604051808215151515815260200191505060405180910390f35b3480156104d057600080fd5b506104fd600480360360208110156104e757600080fd5b8101908080359060200190929190505050612d24565b604051808573ffffffffffffffffffffffffffffffffffffffff1673ffffffffffffffffffffffffffffffffffffffff1681526020018481526020018381526020018215151515815260200194505050505060405180910390f35b34801561056457600080fd5b5061059b6004803603604081101561057b57600080fd5b810190808035906020019092919080359060200190929190505050612dc2565b6040518080602001828103825283818151815260200191508051906020019060200280838360005b838110156105de5780820151818401526020810190506105c3565b505050509050019250505060405180910390f35b3480156105fe57600080fd5b5061062b6004803603602081101561061557600080fd5b8101908080359060200190929190505050613060565b6040518082815260200191505060405180910390f35b34801561064d57600080fd5b506106906004803603602081101561066457600080fd5b81019080803573ffffffffffffffffffffffffffffffffffffffff16906020019092919050505061307d565b604051808215151515815260200191505060405180910390f35b3480156106b657600080fd5b506106e3600480360360208110156106cd57600080fd5b81019080803590602001909291905050506136d1565b604051808215151515815260200191505060405180910390f35b34801561070957600080fd5b5061074c6004803603602081101561072057600080fd5b81019080803573ffffffffffffffffffffffffffffffffffffffff1690602001909291905050506136fe565b604051808215151515815260200191505060405180910390f35b34801561077257600080fd5b5061079f6004803603602081101561078957600080fd5b81019080803590602001909291905050506137ad565b6040518080602001828103825283818151815260200191508051906020019060200280838360005b838110156107e25780820151818401526020810190506107c7565b505050509050019250505060405180910390f35b34801561080257600080fd5b506108456004803603602081101561081957600080fd5b81019080803573ffffffffffffffffffffffffffffffffffffffff16906020019092919050505061384e565b604051808381526020018273ffffffffffffffffffffffffffffffffffffffff1673ffffffffffffffffffffffffffffffffffffffff1681526020019250505060405180910390f35b34801561089a57600080fd5b506108e7600480360360408110156108b157600080fd5b81019080803573ffffffffffffffffffffffffffffffffffffffff16906020019092919080359060200190929190505050613900565b604051808215151515815260200191505060405180910390f35b34801561090d57600080fd5b50610bcb600480360361010081101561092557600080fd5b81019080803590602001909291908035906020019092919080359060200190929190803573ffffffffffffffffffffffffffffffffffffffff1690602001909291908035906020019064010000000081111561098057600080fd5b82018360208201111561099257600080fd5b803590602001918460018302840111640100000000831117156109b457600080fd5b91908080601f016020809104026020016040519081016040528093929190818152602001838380828437600081840152601f19601f82011690508083019250505050505050919291929080359060200190640100000000811115610a1757600080fd5b820183602082011115610a2957600080fd5b80359060200191846001830284011164010000000083111715610a4b57600080fd5b91908080601f016020809104026020016040519081016040528093929190818152602001838380828437600081840152601f19601f82011690508083019250505050505050919291929080359060200190640100000000811115610aae57600080fd5b820183602082011115610ac057600080fd5b80359060200191846001830284011164010000000083111715610ae257600080fd5b91908080601f016020809104026020016040519081016040528093929190818152602001838380828437600081840152601f19601f82011690508083019250505050505050919291929080359060200190640100000000811115610b4557600080fd5b820183602082011115610b5757600080fd5b80359060200191846001830284011164010000000083111715610b7957600080fd5b91908080601f016020809104026020016040519081016040528093929190818152602001838380828437600081840152601f19601f820116905080830192505050505050509192919290505050613da9565b6040518082815260200191505060405180910390f35b348015610bed57600080fd5b50610c1a60048036036020811015610c0457600080fd5b8101908080359060200190929190505050614421565b6040518082815260200191505060405180910390f35b348015610c3c57600080fd5b50610c6960048036036020811015610c5357600080fd5b81019080803590602001909291905050506144c3565b6040518080602001828103825283818151815260200191508051906020019060200280838360005b83811015610cac578082015181840152602081019050610c91565b505050509050019250505060405180910390f35b348015610ccc57600080fd5b50610cf960048036036020811015610ce357600080fd5b810190808035906020019092919050505061452e565b604051808215151515815260200191505060405180910390f35b348015610d1f57600080fd5b50610d4c60048036036020811015610d3657600080fd5b8101908080359060200190929190505050614558565b604051808981526020018881526020018781526020018673ffffffffffffffffffffffffffffffffffffffff1673ffffffffffffffffffffffffffffffffffffffff16815260200180602001806020018060200180602001858103855289818151815260200191508051906020019080838360005b83811015610ddc578082015181840152602081019050610dc1565b50505050905090810190601f168015610e095780820380516001836020036101000a031916815260200191505b50858103845288818151815260200191508051906020019080838360005b83811015610e42578082015181840152602081019050610e27565b50505050905090810190601f168015610e6f5780820380516001836020036101000a031916815260200191505b50858103835287818151815260200191508051906020019080838360005b83811015610ea8578082015181840152602081019050610e8d565b50505050905090810190601f168015610ed55780820380516001836020036101000a031916815260200191505b50858103825286818151815260200191508051906020019080838360005b83811015610f0e578082015181840152602081019050610ef3565b50505050905090810190601f168015610f3b5780820380516001836020036101000a031916815260200191505b509c5050505050505050505050505060405180910390f35b348015610f5f57600080fd5b50610f8c60048036036020811015610f7657600080fd5b81019080803590602001909291905050506148d9565b6040518080602001828103825283818151815260200191508051906020019060200280838360005b83811015610fcf578082015181840152602081019050610fb4565b505050509050019250505060405180910390f35b348015610fef57600080fd5b506110326004803603602081101561100657600080fd5b81019080803573ffffffffffffffffffffffffffffffffffffffff169060200190929190505050614a32565b6040518082815260200191505060405180910390f35b6110806004803603604081101561105e57600080fd5b8101908080359060200190929190803515159060200190929190505050614a7e565b005b34801561108e57600080fd5b50611097614b72565b604051808273ffffffffffffffffffffffffffffffffffffffff1673ffffffffffffffffffffffffffffffffffffffff16815260200191505060405180910390f35b60008483604051602001808381526020018273ffffffffffffffffffffffffffffffffffffffff1673ffffffffffffffffffffffffffffffffffffffff1660601b81526014019250505060405160208183030381529060405280519060200120905080600160008781526020019081526020016000206003015414158015611177575084600160008781526020019081526020016000206002015414155b6111cc576040517f08c379a0000000000000000000000000000000000000000000000000000000008152600401808060200182810382526035815260200180614f346035913960400191505060405180910390fd5b826001600087815260200190815260200160002060000160006101000a81548173ffffffffffffffffffffffffffffffffffffffff021916908373ffffffffffffffffffffffffffffffffffffffff160217905550836001600087815260200190815260200160002060010181905550846001600087815260200190815260200160002060020181905550806001600087815260200190815260200160002060030181905550816001600087815260200190815260200160002060040160006101000a81548160ff0219169083151502179055508115158373ffffffffffffffffffffffffffffffffffffffff16867f469f82e5159cc2abf67f29c3669f3f5d37a3ff390210215e71480856d6b83426876040518082815260200191505060405180910390a45050505050565b600060011515600c600085815260200190815260200160002060008473ffffffffffffffffffffffffffffffffffffffff1673ffffffffffffffffffffffffffffffffffffffff16815260200190815260200160002060009054906101000a900460ff161515146113d2576040517f08c379a00000000000000000000000000000000000000000000000000000000081526004018080602001828103825260138152602001807f436c61696d206973206e6f74206973737565640000000000000000000000000081525060200191505060405180910390fd5b6000806000806060806060806113e78b614558565b809850819950829a50839b50849c50859d50869e50879f5050505050505050508473ffffffffffffffffffffffffffffffffffffffff16878c7f0a987e94442af214b389989c3d7744d55ade11dc422125936fcac9a63ae990df8b8a898989896040518087815260200186815260200180602001806020018060200180602001858103855289818151815260200191508051906020019080838360005b8381101561149f578082015181840152602081019050611484565b50505050905090810190601f1680156114cc5780820380516001836020036101000a031916815260200191505b50858103845288818151815260200191508051906020019080838360005b838110156115055780820151818401526020810190506114ea565b50505050905090810190601f1680156115325780820380516001836020036101000a031916815260200191505b50858103835287818151815260200191508051906020019080838360005b8381101561156b578082015181840152602081019050611550565b50505050905090810190601f1680156115985780820380516001836020036101000a031916815260200191505b50858103825286818151815260200191508051906020019080838360005b838110156115d15780820151818401526020810190506115b6565b50505050905090810190601f1680156115fe5780820380516001836020036101000a031916815260200191505b509a505050505050505050505060405180910390a46000858885604051602001808473ffffffffffffffffffffffffffffffffffffffff1673ffffffffffffffffffffffffffffffffffffffff1660601b815260140183815260200182805190602001908083835b602083106116895780518252602082019150602081019050602083039250611666565b6001836020036101000a038019825116818451168082178552505050505050905001935050505060405160208183030381529060405280519060200120905060008160405160200180807f19457468657265756d205369676e6564204d6573736167653a0a333200000000815250601c0182815260200191505060405160208183030381529060405280519060200120905060006117278783614b98565b90507f391f5edd7209ba797e8055bce97cab2d1a480a2849b0c7fe965c370457166dc481604051808273ffffffffffffffffffffffffffffffffffffffff1673ffffffffffffffffffffffffffffffffffffffff16815260200191505060405180910390a16003600260008373ffffffffffffffffffffffffffffffffffffffff1673ffffffffffffffffffffffffffffffffffffffff1681526020019081526020016000206000015414156117eb5760019b5050505050505050505050506117fb565b60009b5050505050505050505050505b92915050565b6000600e60009054906101000a900473ffffffffffffffffffffffffffffffffffffffff1673ffffffffffffffffffffffffffffffffffffffff163373ffffffffffffffffffffffffffffffffffffffff16146118c6576040517f08c379a00000000000000000000000000000000000000000000000000000000081526004018080602001828103825260138152602001807f53656e646572206973206e6f742061646d696e0000000000000000000000000081525060200191505060405180910390fd5b6000600b60008473ffffffffffffffffffffffffffffffffffffffff1673ffffffffffffffffffffffffffffffffffffffff168152602001908152602001600020600001541461197e576040517f08c379a000000000000000000000000000000000000000000000000000000000815260040180806020018281038252601b8152602001807f436c61696d20486f6c64657220416c726561647920657869737473000000000081525060200191505060405180910390fd5b611989826003613900565b508173ffffffffffffffffffffffffffffffffffffffff167f2fd6f4164f0a8d654cd4f09f7859f454868623c4673df78b554049efca0d5a6f60405160405180910390a2819050919050565b606060056000838152602001908152602001600020805480602002602001604051908101604052809291908181526020018280548015611a3457602002820191906000526020600020905b815481526020019060010190808311611a20575b50505050509050919050565b60006003600260003373ffffffffffffffffffffffffffffffffffffffff1673ffffffffffffffffffffffffffffffffffffffff1681526020019081526020016000206000015414611afa576040517f08c379a000000000000000000000000000000000000000000000000000000000815260040180806020018281038252601c8152602001807f53656e646572206973206e6f74206120636c61696d207369676e65720000000081525060200191505060405180910390fd5b60011515611b07846136d1565b1515148015611b7757508173ffffffffffffffffffffffffffffffffffffffff166001600085815260200190815260200160002060000160009054906101000a900473ffffffffffffffffffffffffffffffffffffffff1673ffffffffffffffffffffffffffffffffffffffff16145b611be9576040517f08c379a00000000000000000000000000000000000000000000000000000000081526004018080602001828103825260168152602001807f55736572206973206e6f7420726567697374657265640000000000000000000081525060200191505060405180910390fd5b600115156009600086815260200190815260200160002060009054906101000a900460ff1615151415611d15576060611c21856144c3565b905060008090505b81518160ff161015611d125760011515600c6000848460ff1681518110611c4c57fe5b6020026020010151815260200190815260200160002060008673ffffffffffffffffffffffffffffffffffffffff1673ffffffffffffffffffffffffffffffffffffffff16815260200190815260200160002060009054906101000a900460ff16151514611d05576040517f08c379a0000000000000000000000000000000000000000000000000000000008152600401808060200182810382526022815260200180614f126022913960400191505060405180910390fd5b8080600101915050611c29565b50505b6001600c600086815260200190815260200160002060008473ffffffffffffffffffffffffffffffffffffffff1673ffffffffffffffffffffffffffffffffffffffff16815260200190815260200160002060006101000a81548160ff021916908315150217905550600d6000858152602001908152602001600020829080600181540180825580915050600190039060005260206000200160009091909190916101000a81548173ffffffffffffffffffffffffffffffffffffffff021916908373ffffffffffffffffffffffffffffffffffffffff160217905550611dfa614cb8565b60046000868152602001908152602001600020604051806101000160405290816000820154815260200160018201548152602001600282015481526020016003820160009054906101000a900473ffffffffffffffffffffffffffffffffffffffff1673ffffffffffffffffffffffffffffffffffffffff1673ffffffffffffffffffffffffffffffffffffffff168152602001600482018054600181600116156101000203166002900480601f016020809104026020016040519081016040528092919081815260200182805460018160011615610100020316600290048015611f265780601f10611efb57610100808354040283529160200191611f26565b820191906000526020600020905b815481529060010190602001808311611f0957829003601f168201915b50505050508152602001600582018054600181600116156101000203166002900480601f016020809104026020016040519081016040528092919081815260200182805460018160011615610100020316600290048015611fc85780601f10611f9d57610100808354040283529160200191611fc8565b820191906000526020600020905b815481529060010190602001808311611fab57829003601f168201915b50505050508152602001600682018054600181600116156101000203166002900480601f01602080910402602001604051908101604052809291908181526020018280546001816001161561010002031660029004801561206a5780601f1061203f5761010080835404028352916020019161206a565b820191906000526020600020905b81548152906001019060200180831161204d57829003601f168201915b50505050508152602001600782018054600181600116156101000203166002900480601f01602080910402602001604051908101604052809291908181526020018280546001816001161561010002031660029004801561210c5780601f106120e15761010080835404028352916020019161210c565b820191906000526020600020905b8154815290600101906020018083116120ef57829003601f168201915b5050505050815250509050806060015173ffffffffffffffffffffffffffffffffffffffff168160200151867fbb2620ba08e48ec29ec5e571023dbc0fdbe411182430338692dbe825eaf17ad6868560000151866040015187608001518860a001518960c001518a60e00151604051808873ffffffffffffffffffffffffffffffffffffffff1673ffffffffffffffffffffffffffffffffffffffff16815260200187815260200186815260200180602001806020018060200180602001858103855289818151815260200191508051906020019080838360005b838110156122025780820151818401526020810190506121e7565b50505050905090810190601f16801561222f5780820380516001836020036101000a031916815260200191505b50858103845288818151815260200191508051906020019080838360005b8381101561226857808201518184015260208101905061224d565b50505050905090810190601f1680156122955780820380516001836020036101000a031916815260200191505b50858103835287818151815260200191508051906020019080838360005b838110156122ce5780820151818401526020810190506122b3565b50505050905090810190601f1680156122fb5780820380516001836020036101000a031916815260200191505b50858103825286818151815260200191508051906020019080838360005b83811015612334578082015181840152602081019050612319565b50505050905090810190601f1680156123615780820380516001836020036101000a031916815260200191505b509b50505050505050505050505060405180910390a460019150509392505050565b6000600e60009054906101000a900473ffffffffffffffffffffffffffffffffffffffff1673ffffffffffffffffffffffffffffffffffffffff163373ffffffffffffffffffffffffffffffffffffffff1614612448576040517f08c379a00000000000000000000000000000000000000000000000000000000081526004018080602001828103825260138152602001807f53656e646572206973206e6f742061646d696e0000000000000000000000000081525060200191505060405180910390fd5b6000600b60008473ffffffffffffffffffffffffffffffffffffffff1673ffffffffffffffffffffffffffffffffffffffff168152602001908152602001600020600001541415612501576040517f08c379a00000000000000000000000000000000000000000000000000000000081526004018080602001828103825260198152602001807f436c61696d2049737375657220446f65736e742065786973740000000000000081525060200191505060405180910390fd5b6000600b60008473ffffffffffffffffffffffffffffffffffffffff1673ffffffffffffffffffffffffffffffffffffffff168152602001908152602001600020600001819055506000600260008473ffffffffffffffffffffffffffffffffffffffff1673ffffffffffffffffffffffffffffffffffffffff16815260200190815260200160002060000181905550819050919050565b60006003600260003373ffffffffffffffffffffffffffffffffffffffff1673ffffffffffffffffffffffffffffffffffffffff1681526020019081526020016000206000015414612653576040517f08c379a000000000000000000000000000000000000000000000000000000000815260040180806020018281038252601c8152602001807f53656e646572206973206e6f74206120636c61696d207369676e65720000000081525060200191505060405180910390fd5b61265b614cb8565b60046000848152602001908152602001600020604051806101000160405290816000820154815260200160018201548152602001600282015481526020016003820160009054906101000a900473ffffffffffffffffffffffffffffffffffffffff1673ffffffffffffffffffffffffffffffffffffffff1673ffffffffffffffffffffffffffffffffffffffff168152602001600482018054600181600116156101000203166002900480601f0160208091040260200160405190810160405280929190818152602001828054600181600116156101000203166002900480156127875780601f1061275c57610100808354040283529160200191612787565b820191906000526020600020905b81548152906001019060200180831161276a57829003601f168201915b50505050508152602001600582018054600181600116156101000203166002900480601f0160208091040260200160405190810160405280929190818152602001828054600181600116156101000203166002900480156128295780601f106127fe57610100808354040283529160200191612829565b820191906000526020600020905b81548152906001019060200180831161280c57829003601f168201915b50505050508152602001600682018054600181600116156101000203166002900480601f0160208091040260200160405190810160405280929190818152602001828054600181600116156101000203166002900480156128cb5780601f106128a0576101008083540402835291602001916128cb565b820191906000526020600020905b8154815290600101906020018083116128ae57829003601f168201915b50505050508152602001600782018054600181600116156101000203166002900480601f01602080910402602001604051908101604052809291908181526020018280546001816001161561010002031660029004801561296d5780601f106129425761010080835404028352916020019161296d565b820191906000526020600020905b81548152906001019060200180831161295057829003601f168201915b505050505081525050905060006006600085815260200190815260200160002054905060066000858152602001908152602001600020600090556000600560008460200151815260200190815260200160002090506000816001838054905003815481106129d757fe5b90600052602060002001549050808284815481106129f157fe5b906000526020600020018190555082600660008381526020019081526020016000208190555060046000878152602001908152602001600020600080820160009055600182016000905560028201600090556003820160006101000a81549073ffffffffffffffffffffffffffffffffffffffff0219169055600482016000612a7a9190614d16565b600582016000612a8a9190614d16565b600682016000612a9a9190614d5e565b600782016000612aaa9190614d5e565b5050600760008781526020019081526020016000206000612acb9190614da6565b81805480612ad557fe5b60019003818190600052602060002001600090559055836060015173ffffffffffffffffffffffffffffffffffffffff168460200151877f2c56935158b43a022179355fa8e09f3a85924208f43cc310eaa4752f28f0ed418760000151886040015189608001518a60a001518b60c001518c60e001516040518087815260200186815260200180602001806020018060200180602001858103855289818151815260200191508051906020019080838360005b83811015612ba3578082015181840152602081019050612b88565b50505050905090810190601f168015612bd05780820380516001836020036101000a031916815260200191505b50858103845288818151815260200191508051906020019080838360005b83811015612c09578082015181840152602081019050612bee565b50505050905090810190601f168015612c365780820380516001836020036101000a031916815260200191505b50858103835287818151815260200191508051906020019080838360005b83811015612c6f578082015181840152602081019050612c54565b50505050905090810190601f168015612c9c5780820380516001836020036101000a031916815260200191505b50858103825286818151815260200191508051906020019080838360005b83811015612cd5578082015181840152602081019050612cba565b50505050905090810190601f168015612d025780820380516001836020036101000a031916815260200191505b509a505050505050505050505060405180910390a46001945050505050919050565b6000806000806001600086815260200190815260200160002060000160009054906101000a900473ffffffffffffffffffffffffffffffffffffffff16600160008781526020019081526020016000206001015460016000888152602001908152602001600020600301546001600089815260200190815260200160002060040160009054906101000a900460ff1693509350935093509193509193565b60606003600260003373ffffffffffffffffffffffffffffffffffffffff1673ffffffffffffffffffffffffffffffffffffffff1681526020019081526020016000206000015414612e7c576040517f08c379a000000000000000000000000000000000000000000000000000000000815260040180806020018281038252601c8152602001807f53656e646572206973206e6f74206120636c61696d207369676e65720000000081525060200191505060405180910390fd5b6000600460008581526020019081526020016000206001015414158015612eba57506000600460008481526020019081526020016000206001015414155b612f2c576040517f08c379a00000000000000000000000000000000000000000000000000000000081526004018080602001828103825260148152602001807f436c61696d20646f6573206e6f7420657869737400000000000000000000000081525060200191505060405180910390fd5b6007600084815260200190815260200160002082908060018154018082558091505060019003906000526020600020016000909190919091505560016009600085815260200190815260200160002060006101000a81548160ff02191690831515021790555060016008600084815260200190815260200160002060006101000a81548160ff021916908315150217905550827f13b275666ec4dc58400b7f3baa94c8c378a7a6f5d00974a8d2fd87ef3b7f5d13836040518082815260200191505060405180910390a26007600084815260200190815260200160002080548060200260200160405190810160405280929190818152602001828054801561305357602002820191906000526020600020905b81548152602001906001019080831161303f575b5050505050905092915050565b6000600a6000838152602001908152602001600020549050919050565b6000600e60009054906101000a900473ffffffffffffffffffffffffffffffffffffffff1673ffffffffffffffffffffffffffffffffffffffff163373ffffffffffffffffffffffffffffffffffffffff1614613142576040517f08c379a00000000000000000000000000000000000000000000000000000000081526004018080602001828103825260138152602001807f53656e646572206973206e6f742061646d696e0000000000000000000000000081525060200191505060405180910390fd5b8173ffffffffffffffffffffffffffffffffffffffff16600260008473ffffffffffffffffffffffffffffffffffffffff1673ffffffffffffffffffffffffffffffffffffffff16815260200190815260200160002060010160009054906101000a900473ffffffffffffffffffffffffffffffffffffffff1673ffffffffffffffffffffffffffffffffffffffff1614613245576040517f08c379a00000000000000000000000000000000000000000000000000000000081526004018080602001828103825260128152602001807f4b657920646f6573206e6f74206578697374000000000000000000000000000081525060200191505060405180910390fd5b6000600260008473ffffffffffffffffffffffffffffffffffffffff1673ffffffffffffffffffffffffffffffffffffffff168152602001908152602001600020600001549050600060036000838152602001908152602001600020905060008483604051602001808373ffffffffffffffffffffffffffffffffffffffff1673ffffffffffffffffffffffffffffffffffffffff1660601b815260140182815260200192505050604051602081830303815290604052805190602001209050600060066000838152602001908152602001600020549050600660008381526020019081526020016000206000905560008360018580549050038154811061334957fe5b9060005260206000200160009054906101000a900473ffffffffffffffffffffffffffffffffffffffff1690508084838154811061338357fe5b9060005260206000200160006101000a81548173ffffffffffffffffffffffffffffffffffffffff021916908373ffffffffffffffffffffffffffffffffffffffff160217905550816006600083600260008673ffffffffffffffffffffffffffffffffffffffff1673ffffffffffffffffffffffffffffffffffffffff16815260200190815260200160002060010160009054906101000a900473ffffffffffffffffffffffffffffffffffffffff16604051602001808373ffffffffffffffffffffffffffffffffffffffff1673ffffffffffffffffffffffffffffffffffffffff1660601b81526014018273ffffffffffffffffffffffffffffffffffffffff1673ffffffffffffffffffffffffffffffffffffffff1660601b81526014019250505060405160208183030381529060405280519060200120815260200190815260200160002081905550838054806134db57fe5b6001900381819060005260206000200160006101000a81549073ffffffffffffffffffffffffffffffffffffffff02191690559055600260008873ffffffffffffffffffffffffffffffffffffffff1673ffffffffffffffffffffffffffffffffffffffff1681526020019081526020016000206000808201600090556001820160006101000a81549073ffffffffffffffffffffffffffffffffffffffff02191690555050600b60008873ffffffffffffffffffffffffffffffffffffffff1673ffffffffffffffffffffffffffffffffffffffff1681526020019081526020016000206000808201600090556001820160006135d99190614d5e565b5050600260008873ffffffffffffffffffffffffffffffffffffffff1673ffffffffffffffffffffffffffffffffffffffff16815260200190815260200160002060000154600260008973ffffffffffffffffffffffffffffffffffffffff1673ffffffffffffffffffffffffffffffffffffffff16815260200190815260200160002060010160009054906101000a900473ffffffffffffffffffffffffffffffffffffffff1673ffffffffffffffffffffffffffffffffffffffff167fe96ba5805e91ce4b5225d90ad1aac15c207472188f51f24025974341360f0f8a60405160405180910390a3600195505050505050919050565b60006001600083815260200190815260200160002060040160009054906101000a900460ff169050919050565b600080600b60008473ffffffffffffffffffffffffffffffffffffffff1673ffffffffffffffffffffffffffffffffffffffff16815260200190815260200160002060000154141561375357600090506137a8565b6001600b60008473ffffffffffffffffffffffffffffffffffffffff1673ffffffffffffffffffffffffffffffffffffffff1681526020019081526020016000206000015414156137a757600190506137a8565b5b919050565b60606003600083815260200190815260200160002080548060200260200160405190810160405280929190818152602001828054801561384257602002820191906000526020600020905b8160009054906101000a900473ffffffffffffffffffffffffffffffffffffffff1673ffffffffffffffffffffffffffffffffffffffff16815260200190600101908083116137f8575b50505050509050919050565b600080600260008473ffffffffffffffffffffffffffffffffffffffff1673ffffffffffffffffffffffffffffffffffffffff16815260200190815260200160002060000154600260008573ffffffffffffffffffffffffffffffffffffffff1673ffffffffffffffffffffffffffffffffffffffff16815260200190815260200160002060010160009054906101000a900473ffffffffffffffffffffffffffffffffffffffff1691509150915091565b6000600e60009054906101000a900473ffffffffffffffffffffffffffffffffffffffff1673ffffffffffffffffffffffffffffffffffffffff163373ffffffffffffffffffffffffffffffffffffffff16146139c5576040517f08c379a00000000000000000000000000000000000000000000000000000000081526004018080602001828103825260138152602001807f53656e646572206973206e6f742061646d696e0000000000000000000000000081525060200191505060405180910390fd5b6000600260008573ffffffffffffffffffffffffffffffffffffffff1673ffffffffffffffffffffffffffffffffffffffff1681526020019081526020016000206000015414613a7d576040517f08c379a00000000000000000000000000000000000000000000000000000000081526004018080602001828103825260128152602001807f4b657920416c726561647920457869737473000000000000000000000000000081525060200191505060405180910390fd5b6000821415613af4576040517f08c379a000000000000000000000000000000000000000000000000000000000815260040180806020018281038252601c8152602001807f4b657920507572706f73652030206973206e6f7420616c6c6f7765640000000081525060200191505060405180910390fd5b82600260008573ffffffffffffffffffffffffffffffffffffffff1673ffffffffffffffffffffffffffffffffffffffff16815260200190815260200160002060010160006101000a81548173ffffffffffffffffffffffffffffffffffffffff021916908373ffffffffffffffffffffffffffffffffffffffff16021790555081600260008573ffffffffffffffffffffffffffffffffffffffff1673ffffffffffffffffffffffffffffffffffffffff168152602001908152602001600020600001819055506003600083815260200190815260200160002080549050600660008585604051602001808373ffffffffffffffffffffffffffffffffffffffff1673ffffffffffffffffffffffffffffffffffffffff1660601b8152601401828152602001925050506040516020818303038152906040528051906020012081526020019081526020016000208190555060036000838152602001908152602001600020839080600181540180825580915050600190039060005260206000200160009091909190916101000a81548173ffffffffffffffffffffffffffffffffffffffff021916908373ffffffffffffffffffffffffffffffffffffffff160217905550818373ffffffffffffffffffffffffffffffffffffffff167f7d958a859734aa5212d2568f8700fe77619bc93d5b08abf1445585bac8bff60660405160405180910390a3600382148015613d5157506000600b60008573ffffffffffffffffffffffffffffffffffffffff1673ffffffffffffffffffffffffffffffffffffffff16815260200190815260200160002060000154145b15613d9f576001600b60008573ffffffffffffffffffffffffffffffffffffffff1673ffffffffffffffffffffffffffffffffffffffff168152602001908152602001600020600001819055505b6001905092915050565b60006003600260003373ffffffffffffffffffffffffffffffffffffffff1673ffffffffffffffffffffffffffffffffffffffff1681526020019081526020016000206000015414613e63576040517f08c379a000000000000000000000000000000000000000000000000000000000815260040180806020018281038252601c8152602001807f53656e646572206973206e6f74206120636c61696d207369676e65720000000081525060200191505060405180910390fd5b600089878a604051602001808481526020018373ffffffffffffffffffffffffffffffffffffffff1673ffffffffffffffffffffffffffffffffffffffff1660601b8152601401828152602001935050505060405160208183030381529060405280519060200120905089600460008381526020019081526020016000206000015414158015613f09575088600460008381526020019081526020016000206001015414155b8015613f7757508673ffffffffffffffffffffffffffffffffffffffff166004600083815260200190815260200160002060030160009054906101000a900473ffffffffffffffffffffffffffffffffffffffff1673ffffffffffffffffffffffffffffffffffffffff1614155b613fe9576040517f08c379a000000000000000000000000000000000000000000000000000000000815260040180806020018281038252601d8152602001807f436c61696d206475706c69636174696f6e206e6f7420616c6c6f77656400000081525060200191505060405180910390fd5b6040518061010001604052808b81526020018a81526020018981526020018873ffffffffffffffffffffffffffffffffffffffff168152602001878152602001868152602001858152602001848152506004600083815260200190815260200160002060008201518160000155602082015181600101556040820151816002015560608201518160030160006101000a81548173ffffffffffffffffffffffffffffffffffffffff021916908373ffffffffffffffffffffffffffffffffffffffff16021790555060808201518160040190805190602001906140cd929190614dc7565b5060a08201518160050190805190602001906140ea929190614dc7565b5060c0820151816006019080519060200190614107929190614e47565b5060e0820151816007019080519060200190614124929190614e47565b50905050600560008a81526020019081526020016000208054905060066000898c604051602001808373ffffffffffffffffffffffffffffffffffffffff1673ffffffffffffffffffffffffffffffffffffffff1660601b81526014018281526020019250505060405160208183030381529060405280519060200120815260200190815260200160002081905550600560008a815260200190815260200160002081908060018154018082558091505060019003906000526020600020016000909190919091505580600a60008c8152602001908152602001600020819055508673ffffffffffffffffffffffffffffffffffffffff1689827fd790f2749eafb113b6ff0cc1a89da6dc242e8e5b2bf47ac59daf39114ac5482c8d8c8b8b8b8b6040518087815260200186815260200180602001806020018060200180602001858103855289818151815260200191508051906020019080838360005b8381101561429d578082015181840152602081019050614282565b50505050905090810190601f1680156142ca5780820380516001836020036101000a031916815260200191505b50858103845288818151815260200191508051906020019080838360005b838110156143035780820151818401526020810190506142e8565b50505050905090810190601f1680156143305780820380516001836020036101000a031916815260200191505b50858103835287818151815260200191508051906020019080838360005b8381101561436957808201518184015260208101905061434e565b50505050905090810190601f1680156143965780820380516001836020036101000a031916815260200191505b50858103825286818151815260200191508051906020019080838360005b838110156143cf5780820151818401526020810190506143b4565b50505050905090810190601f1680156143fc5780820380516001836020036101000a031916815260200191505b509a505050505050505050505060405180910390a48091505098975050505050505050565b600060011515614430836136d1565b1515146144a5576040517f08c379a00000000000000000000000000000000000000000000000000000000081526004018080602001828103825260168152602001807f55736572206973206e6f7420726567697374657265640000000000000000000081525060200191505060405180910390fd5b60016000838152602001908152602001600020600101549050919050565b60606007600083815260200190815260200160002080548060200260200160405190810160405280929190818152602001828054801561452257602002820191906000526020600020905b81548152602001906001019080831161450e575b50505050509050919050565b60006009600083815260200190815260200160002060009054906101000a900460ff169050919050565b60008060008060608060608061456c614cb8565b600460008b8152602001908152602001600020604051806101000160405290816000820154815260200160018201548152602001600282015481526020016003820160009054906101000a900473ffffffffffffffffffffffffffffffffffffffff1673ffffffffffffffffffffffffffffffffffffffff1673ffffffffffffffffffffffffffffffffffffffff168152602001600482018054600181600116156101000203166002900480601f0160208091040260200160405190810160405280929190818152602001828054600181600116156101000203166002900480156146985780601f1061466d57610100808354040283529160200191614698565b820191906000526020600020905b81548152906001019060200180831161467b57829003601f168201915b50505050508152602001600582018054600181600116156101000203166002900480601f01602080910402602001604051908101604052809291908181526020018280546001816001161561010002031660029004801561473a5780601f1061470f5761010080835404028352916020019161473a565b820191906000526020600020905b81548152906001019060200180831161471d57829003601f168201915b50505050508152602001600682018054600181600116156101000203166002900480601f0160208091040260200160405190810160405280929190818152602001828054600181600116156101000203166002900480156147dc5780601f106147b1576101008083540402835291602001916147dc565b820191906000526020600020905b8154815290600101906020018083116147bf57829003601f168201915b50505050508152602001600782018054600181600116156101000203166002900480601f01602080910402602001604051908101604052809291908181526020018280546001816001161561010002031660029004801561487e5780601f106148535761010080835404028352916020019161487e565b820191906000526020600020905b81548152906001019060200180831161486157829003601f168201915b5050505050815250509050806000015181602001518260400151836060015184608001518560a001518660c001518760e001518393508292508191508090509850985098509850985098509850985050919395975091939597565b60606003600260003373ffffffffffffffffffffffffffffffffffffffff1673ffffffffffffffffffffffffffffffffffffffff1681526020019081526020016000206000015414614993576040517f08c379a000000000000000000000000000000000000000000000000000000000815260040180806020018281038252601c8152602001807f53656e646572206973206e6f74206120636c61696d207369676e65720000000081525060200191505060405180910390fd5b600d6000838152602001908152602001600020805480602002602001604051908101604052809291908181526020018280548015614a2657602002820191906000526020600020905b8160009054906101000a900473ffffffffffffffffffffffffffffffffffffffff1673ffffffffffffffffffffffffffffffffffffffff16815260200190600101908083116149dc575b50505050509050919050565b6000600260008373ffffffffffffffffffffffffffffffffffffffff1673ffffffffffffffffffffffffffffffffffffffff168152602001908152602001600020600001549050919050565b6000809054906101000a900473ffffffffffffffffffffffffffffffffffffffff1673ffffffffffffffffffffffffffffffffffffffff163373ffffffffffffffffffffffffffffffffffffffff1614614b40576040517f08c379a000000000000000000000000000000000000000000000000000000000815260040180806020018281038252600c8152602001807f556e417568746f72697a6564000000000000000000000000000000000000000081525060200191505060405180910390fd5b806001600084815260200190815260200160002060040160006101000a81548160ff0219169083151502179055505050565b600e60009054906101000a900473ffffffffffffffffffffffffffffffffffffffff1681565b6000806000806041865114614c15576040517f08c379a00000000000000000000000000000000000000000000000000000000081526004018080602001828103825260188152602001807f496e76616c6964207369676e6174757265206c656e677468000000000000000081525060200191505060405180910390fd5b6020860151925060408601519150606086015160001a9050601b8160ff161015614c4057601b810190505b600060018683868660405160008152602001604052604051808581526020018460ff1660ff1681526020018381526020018281526020019450505050506020604051602081039080840390855afa158015614c9f573d6000803e3d6000fd5b5050506020604051035190508094505050505092915050565b604051806101000160405280600080191681526020016000815260200160008152602001600073ffffffffffffffffffffffffffffffffffffffff168152602001606081526020016060815260200160608152602001606081525090565b50805460018160011615610100020316600290046000825580601f10614d3c5750614d5b565b601f016020900490600052602060002090810190614d5a9190614ec7565b5b50565b50805460018160011615610100020316600290046000825580601f10614d845750614da3565b601f016020900490600052602060002090810190614da29190614ec7565b5b50565b5080546000825590600052602060002090810190614dc49190614eec565b50565b828054600181600116156101000203166002900490600052602060002090601f016020900481019282601f10614e0857805160ff1916838001178555614e36565b82800160010185558215614e36579182015b82811115614e35578251825591602001919060010190614e1a565b5b509050614e439190614ec7565b5090565b828054600181600116156101000203166002900490600052602060002090601f016020900481019282601f10614e8857805160ff1916838001178555614eb6565b82800160010185558215614eb6579182015b82811115614eb5578251825591602001919060010190614e9a565b5b509050614ec39190614ec7565b5090565b614ee991905b80821115614ee5576000816000905550600101614ecd565b5090565b90565b614f0e91905b80821115614f0a576000816000905550600101614ef2565b5090565b9056fe5072652d5265717569737465206973206e6f74206973737565642c2064656e6965645573657220697320616c726561647920726567697374657265642077697468207468652070726f766964656420757365726e616d65a264697066735822122046ec4584e238741a879e1d7b95ff3d972e5f9d176f540cc8e0fac5bc65d7463264736f6c63430006010033",
  "source": "/*\nThis Smart Contract imports ERC725.sol, ERC735.sol and UserManagement.sol contracts for implementation\n*/\n\npragma solidity >=0.4.21 < 0.7.0;\n\nimport \"./ERC725.sol\";\nimport \"./ERC735.sol\";\nimport \"./UserManagement.sol\";\n\ncontract Identity is ERC725, ERC735, User\n{\n    mapping(address => Key)keys;\n    mapping(uint256 => address[])keysByPurpose;\n\n    mapping(bytes32 => Claim)claims;\n    mapping(uint256 => bytes32[])claimsByType;\n    mapping(bytes32 => uint256)claimPosition;\n    mapping(bytes32 => bytes32[])claimPreRequisites;\n    mapping(bytes32 => bool)preRequisiteAdded;\n    mapping(bytes32 => bool)claimHasPreRequisites;\n    mapping(bytes32 => bytes32)claimIdByName;\n\n    mapping(address => Issuers)claimIssuers;\n    mapping(bytes32 => mapping(address => bool))issuedClaims;\n    mapping(bytes32 => address[])claimers;\n\n    event KeyAdded(address indexed key, uint256 indexed purpose);\n    event KeyRemoved(address indexed key, uint256 indexed purpose);\n\n    event ClaimAdded(bytes32 indexed claimId, bytes32 claimName, uint256 indexed claimType, uint256 scheme,\n                    address indexed issuer, bytes signature, bytes data, string uri, string issuerName);\n\n    event PreReqAdded(bytes32 indexed claimId, bytes32 preReqId);\n\n    event ClaimRemoved(bytes32 indexed claimId, bytes32 claimName, uint256 indexed claimType, uint256 scheme,\n                    address indexed issuer, bytes signature, bytes data, string uri, string issuerName);\n\n    event ClaimIssuerAdded(address indexed claimer);\n\n    event ClaimIssued(bytes32 indexed claimId, address claimer, bytes32 claimName, uint256 indexed claimType, uint256 scheme,\n                    address indexed issuer, bytes signature, bytes data, string uri, string issuerName);\n\n    event ClaimRequested(bytes32 indexed claimId, bytes32 claimName, uint256 indexed claimType, uint256 scheme,\n                    address indexed issuer, bytes signature, bytes data, string uri, string issuerName);\n\n    event RecoveredAddress(address recoveredAddress);\n\n    event KeyHolderLength(bool length);\n\n\n    struct Key {\n        uint256 purpose; // Administrator Key = 1, Claim Issuer Key = 3\n        address key;\n    }\n\n    struct Claim {\n        bytes32 claimName;\n        uint256 claimType;\n        uint256 scheme;\n        address issuer;  // msg.sender(Claim Issuer)\n        bytes signature; // this.address + claimType + data\n        bytes data;\n        string uri;\n        string issuerName;\n    }\n\n    struct Issuers {\n        uint256 status;\n        string name;\n    }\n\n    address public administrator;\n    constructor() public\n    {\n        administrator = msg.sender;\n        addKey(msg.sender, 1);\n\n        bytes32 Id = keccak256(abi.encodePacked(\"Test\", msg.sender, \"0\"));\n        claims[Id] = Claim({\n            claimName : keccak256(abi.encodePacked(\"Test Claim\")),\n            claimType : 0,\n            scheme : 0,\n            issuer : msg.sender,\n            signature : \"\",\n            data : \"\",\n            uri : \"Unusable claim\",\n            issuerName : \"Administrator\"\n        });\n\n        claimPosition[keccak256(abi.encodePacked(msg.sender,\"0\"))] = claimsByType[0].length;\n        claimsByType[0].push(Id);\n        claimers[Id].push(administrator);\n    }\n\n    //Modifiers\n    modifier onlyAdmin\n    {\n        require(msg.sender == administrator, \"Sender is not admin\");\n        _;\n    }\n\n    modifier claimSignerOnly\n    {\n        require(keys[msg.sender].purpose == 3, \"Sender is not a claim signer\");\n        _;\n    }\n\n    //Keys\n    function addKey(address _address, uint256 _purpose) public onlyAdmin override returns(bool success)\n    {\n        require(keys[_address].purpose == 0,\"Key Already Exists\");\n        require(_purpose != 0, \"Key Purpose 0 is not allowed\");\n\n        keys[_address].key = _address;\n        keys[_address].purpose = _purpose;\n\n        claimPosition[keccak256(abi.encodePacked(_address, _purpose))] = keysByPurpose[_purpose].length;\n        keysByPurpose[_purpose].push(_address);\n\n        emit KeyAdded(_address, _purpose);\n\n        if(_purpose == 3 && claimIssuers[_address].status == 0)\n        {\n            claimIssuers[_address].status = 1;\n        }\n        return true;\n    }\n\n    function getKey(address _key)public view override returns(uint256 purpose, address addr)\n    {\n        return(keys[_key].purpose,keys[_key].key);\n    }\n\n    function getKeysByPurpose(uint256 _purpose) public view override returns(address[] memory keysPurpose)\n    {\n        return(keysByPurpose[_purpose]);\n    }\n\n    function getKeyPurpose(address _key) public view override returns(uint256 _purpose)\n    {\n        return(keys[_key].purpose);\n    }\n\n    function removeKey(address _key) public onlyAdmin returns(bool success)\n    {\n        require(keys[_key].key == _key, \"Key does not exist\");\n\n        uint256 keyPurpose = keys[_key].purpose;\n\n        address[] storage keyPurposeArray = keysByPurpose[keyPurpose];\n\n        bytes32 previousKeyIndex = keccak256(abi.encodePacked(_key,keyPurpose));\n        uint256 newIndex = claimPosition[previousKeyIndex];\n        delete  claimPosition[previousKeyIndex];\n\n        address keyTypeReplacer = keyPurposeArray[keyPurposeArray.length-1];\n        keyPurposeArray[newIndex] = keyTypeReplacer;\n        claimPosition[keccak256(abi.encodePacked(keyTypeReplacer, keys[keyTypeReplacer].key))] = newIndex;\n        keyPurposeArray.pop();\n\n        delete keys[_key];\n        //delete keysByPurpose[keys[_key].purpose];\n        delete claimIssuers[_key];\n\n        emit KeyRemoved(keys[_key].key, keys[_key].purpose);\n        return true;\n    }\n\n    //Issuers\n    function addIssuer(address _issuer)public onlyAdmin returns(address issuer)\n    {\n        require(claimIssuers[_issuer].status == 0, \"Claim Holder Already exists\");\n        //claimIssuers[_issuer].status = 1;\n        addKey(_issuer, 3);\n        emit ClaimIssuerAdded(_issuer);\n        return _issuer;\n    }\n\n    function removeIssuer(address _issuer)public onlyAdmin returns(address issuer)\n    {\n        require(claimIssuers[_issuer].status != 0, \"Claim Issuer Doesnt exist\");\n        //claimIssuers[_issuer].status = 1;\n        claimIssuers[_issuer].status = 0;\n        keys[_issuer].purpose = 0;\n        return _issuer;\n    }\n\n    function isIssuer(address _issuer)public view returns(bool result)\n    {\n        if(claimIssuers[_issuer].status == 0)\n        {\n            return false;\n        }\n        else if(claimIssuers[_issuer].status == 1)\n        {\n            return true;\n        }\n    }\n\n    //Claims\n    function addClaim(bytes32 _claimName, uint256 _claimType, uint256 _scheme, address _issuer, bytes memory _signature,\n                        bytes memory _data, string memory _uri, string memory _issuerName)public override claimSignerOnly returns(bytes32 _claimId)\n    {\n        bytes32 claimId = keccak256(abi.encodePacked(_claimName, _issuer, _claimType));\n\n        require(claims[claimId].claimName != _claimName && claims[claimId].claimType != _claimType &&\n                claims[claimId].issuer != _issuer, \"Claim duplication not allowed\");\n\n        claims[claimId] = Claim({\n            claimName : _claimName,\n            claimType : _claimType,\n            scheme : _scheme,\n            issuer : _issuer,\n            signature : _signature,\n            data : _data,\n            uri : _uri,\n            issuerName : _issuerName\n        });\n\n        claimPosition[keccak256(abi.encodePacked(_issuer,_claimType))] = claimsByType[_claimType].length;\n        claimsByType[_claimType].push(claimId);\n        claimIdByName[_claimName] = claimId;\n        emit ClaimAdded(claimId, _claimName, _claimType, _scheme, _issuer, _signature, _data, _uri, _issuerName);\n        return(claimId);\n    }\n\n    //Getting Claim Id By Name\n    function getClaimIdByName(bytes32 _claimName) public view returns(bytes32 claimId)\n    {\n        return claimIdByName[_claimName];\n    }\n\n    //Adding Pre Requisite Claims\n    function addPreRequistesClaim(bytes32 _claimId, bytes32 _preReqId) public claimSignerOnly returns(bytes32[] memory preReqIds)\n    {\n        require(claims[_claimId].claimType != 0 && claims[_preReqId].claimType != 0, \"Claim does not exist\");\n        // if(claimHasPreRequisites[_claimId]==true)\n        // {\n        //     require(preRequisiteAdded[_preReqId] != true, \"Pre Req Already Added\");\n        // }\n        claimPreRequisites[_claimId].push(_preReqId);\n        claimHasPreRequisites[_claimId] = true;\n        preRequisiteAdded[_preReqId] = true;\n        emit PreReqAdded(_claimId, _preReqId);\n        return(claimPreRequisites[_claimId]);\n    }\n\n    //Getting Pre-Req Ids\n    function getPreRequisiteIds(bytes32 _claimId) public view returns(bytes32[] memory preReqIds)\n    {\n        return(claimPreRequisites[_claimId]);\n    }\n\n    function getClaim(bytes32 claimId) public override view returns(bytes32 claimName, uint256 claimType, uint256 scheme, address issuer,\n                 bytes memory signature, bytes memory data, string memory uri, string memory issuerName)\n    {\n        Claim memory _claim = claims[claimId];\n        return(_claim.claimName, _claim.claimType, _claim.scheme, _claim.issuer, _claim.signature, _claim.data, _claim.uri, _claim.issuerName);\n    }\n\n    function getClaimIdsByType(uint256 _claimType) public override view returns(bytes32[] memory claimIds)\n    {\n        return claimsByType[_claimType];\n    }\n\n    function removeClaim(bytes32 _claimId) public claimSignerOnly override returns(bool success)\n    {\n        Claim memory _claim = claims[_claimId];\n        //require(msg.sender == _claim.issuer || keys[msg.sender].purpose == 1 || msg.sender == address(this), \"UnAuthorized\");\n\n        uint256 claimIdTypePosition = claimPosition[_claimId];\n        delete claimPosition[_claimId];\n        bytes32[] storage claimTypeArray = claimsByType[_claim.claimType];\n        bytes32 replacer = claimTypeArray[claimTypeArray.length-1];\n        claimTypeArray[claimIdTypePosition] = replacer;\n        claimPosition[replacer] = claimIdTypePosition;\n        delete claims[_claimId];\n        delete claimPreRequisites[_claimId];\n        claimTypeArray.pop();\n        \n        emit ClaimRemoved(_claimId, _claim.claimName, _claim.claimType, _claim.scheme, _claim.issuer, _claim.signature, _claim.data, _claim.uri, _claim.issuerName);\n\n        return true;\n    }\n\n    //Issuing Claims with Pre-Req Checks and Claims\n    function issueClaim(bytes32 _claimId, bytes32 _username, address _claimer) public claimSignerOnly returns(bool success)\n    {\n        require(isUser(_username) == true && clients[_username].UserAddress==_claimer, \"User is not registered\");\n        //require(issuedClaims[_claimId][_claimer] == false, \"Claim is already issued\");\n        if(claimHasPreRequisites[_claimId]==true)\n        {\n            bytes32[] memory preReqIds = getPreRequisiteIds(_claimId);\n            for(uint8 i = 0; i<preReqIds.length; i++)\n            {\n                require(issuedClaims[preReqIds[i]][_claimer] == true, \"Pre-Requiste is not issued, denied\");\n            }\n        }\n        issuedClaims[_claimId][_claimer] = true;\n        claimers[_claimId].push(_claimer);\n\n        Claim memory _claim = claims[_claimId];\n        emit ClaimIssued(_claimId, _claimer, _claim.claimName, _claim.claimType, _claim.scheme, _claim.issuer,\n                        _claim.signature, _claim.data, _claim.uri, _claim.issuerName);\n        return true;\n    }\n\n    //Check Pre Req Claims\n    function claimHasPreReq(bytes32 _claimId) public view returns(bool result)\n    {\n        return(claimHasPreRequisites[_claimId]);\n    }\n\n    function getClaimHolders(bytes32 _claimId) public view claimSignerOnly returns(address[] memory addresses)\n    {\n        return claimers[_claimId];\n    }\n\n    //Verify Claim\n    function claimIsValid(bytes32 _claimId, address _claimer) public returns(bool result)\n    {\n        //check if claim is issued\n        require(issuedClaims[_claimId][_claimer]==true, \"Claim is not issued\");\n\n        bytes32 claimName;\n        uint256 claimType;\n        uint256 scheme;\n        address issuer;\n        bytes memory signature;\n        bytes memory data;\n        string memory uri;\n        string memory issuerName;\n\n        //Fetch claim from claims array\n        (claimName, claimType,scheme,issuer,signature,data,uri,issuerName) = getClaim(_claimId);\n\n        emit ClaimRequested(_claimId, claimName, claimType, scheme, issuer, signature, data, uri, issuerName);\n\n        bytes32 dataHash = keccak256(abi.encodePacked(issuer, claimType, data));\n        bytes32 prefixedHash = keccak256(abi.encodePacked(\"\\x19Ethereum Signed Message:\\n32\", dataHash));\n\n        //Retreive address of data signer\n        address recovered = getRecoveredAddress(signature, prefixedHash);\n        emit RecoveredAddress(recovered);\n\n        //Hashing Recovered Address(issuer address)\n        //bytes32 hashedAddress = keccak256(abi.encodePacked(recovered));\n\n        if(keys[recovered].purpose == 3)\n        {\n            return true;\n        }\n        else\n        {\n            return false;\n        }\n    }\n\n    function getRecoveredAddress(bytes memory sig, bytes32 dataHash) internal pure returns(address issuer)\n    {\n        bytes32 r;\n        bytes32 s;\n        uint8 v;\n\n        // Check the signature length\n        if (sig.length != 65) {\n            revert(\"Invalid signature length\");\n        }\n\n        // Divide the signature in r, s and v variables\n        assembly{\n            r := mload(add(sig, 32))\n            s := mload(add(sig, 64))\n            v := byte(0, mload(add(sig, 96)))\n        }\n\n        if (v < 27) {\n            v += 27;\n        }\n        address recoveredAddress = ecrecover(dataHash, v, r, s);\n        return (recoveredAddress);\n    }\n}",
  "sourcePath": "/Users/muhammadtaimoor/Projects/Thesis/contracts/Identity.sol",
  "compiler": {
    "name": "solc",
    "version": "0.6.1+commit.e6f7d5a4.Emscripten.clang"
  },
  "schemaVersion": "3.0.23",
  "updatedAt": "2020-12-11T14:54:27.459Z",
  "devdoc": {
    "methods": {}
  },
  "userdoc": {
    "methods": {}
  }
}