{
  "contractName": "User",
  "abi": [
    {
      "inputs": [],
      "stateMutability": "nonpayable",
      "type": "constructor"
    },
    {
      "anonymous": false,
      "inputs": [
        {
          "indexed": true,
          "internalType": "bytes32",
          "name": "email",
          "type": "bytes32"
        },
        {
          "indexed": true,
          "internalType": "address",
          "name": "userAddres",
          "type": "address"
        },
        {
          "indexed": false,
          "internalType": "uint256",
          "name": "publicKey",
          "type": "uint256"
        },
        {
          "indexed": true,
          "internalType": "bool",
          "name": "status",
          "type": "bool"
        }
      ],
      "name": "userManipulated",
      "type": "event"
    },
    {
      "anonymous": false,
      "inputs": [
        {
          "indexed": false,
          "internalType": "string",
          "name": "message",
          "type": "string"
        }
      ],
      "name": "userNotRegistered",
      "type": "event"
    },
    {
      "inputs": [
        {
          "internalType": "bytes32",
          "name": "_username",
          "type": "bytes32"
        },
        {
          "internalType": "uint256",
          "name": "_publicKey",
          "type": "uint256"
        },
        {
          "internalType": "address",
          "name": "_userAddress",
          "type": "address"
        },
        {
          "internalType": "bool",
          "name": "_status",
          "type": "bool"
        }
      ],
      "name": "signUp",
      "outputs": [],
      "stateMutability": "payable",
      "type": "function"
    },
    {
      "inputs": [
        {
          "internalType": "bytes32",
          "name": "_username",
          "type": "bytes32"
        }
      ],
      "name": "getUser",
      "outputs": [
        {
          "internalType": "address",
          "name": "_address",
          "type": "address"
        },
        {
          "internalType": "uint256",
          "name": "_pubKey",
          "type": "uint256"
        },
        {
          "internalType": "bytes32",
          "name": "_id",
          "type": "bytes32"
        },
        {
          "internalType": "bool",
          "name": "_status",
          "type": "bool"
        }
      ],
      "stateMutability": "view",
      "type": "function"
    },
    {
      "inputs": [
        {
          "internalType": "bytes32",
          "name": "_username",
          "type": "bytes32"
        }
      ],
      "name": "isUser",
      "outputs": [
        {
          "internalType": "bool",
          "name": "result",
          "type": "bool"
        }
      ],
      "stateMutability": "view",
      "type": "function"
    },
    {
      "inputs": [
        {
          "internalType": "bytes32",
          "name": "_username",
          "type": "bytes32"
        }
      ],
      "name": "getPublicKey",
      "outputs": [
        {
          "internalType": "uint256",
          "name": "",
          "type": "uint256"
        }
      ],
      "stateMutability": "view",
      "type": "function"
    },
    {
      "inputs": [
        {
          "internalType": "bytes32",
          "name": "_username",
          "type": "bytes32"
        },
        {
          "internalType": "bool",
          "name": "_status",
          "type": "bool"
        }
      ],
      "name": "changeStatus",
      "outputs": [],
      "stateMutability": "payable",
      "type": "function"
    }
  ],
  "bytecode": "0x608060405234801561001057600080fd5b50336000806101000a81548173ffffffffffffffffffffffffffffffffffffffff021916908373ffffffffffffffffffffffffffffffffffffffff16021790555061070f806100606000396000f3fe60806040526004361061004a5760003560e01c80630e122e9e1461004f5780636517579c146100b3578063760bb00614610147578063b1c551ca1461019a578063e7adcfa4146101e9575b600080fd5b6100b16004803603608081101561006557600080fd5b810190808035906020019092919080359060200190929190803573ffffffffffffffffffffffffffffffffffffffff169060200190929190803515159060200190929190505050610223565b005b3480156100bf57600080fd5b506100ec600480360360208110156100d657600080fd5b8101908080359060200190929190505050610443565b604051808573ffffffffffffffffffffffffffffffffffffffff1673ffffffffffffffffffffffffffffffffffffffff1681526020018481526020018381526020018215151515815260200194505050505060405180910390f35b34801561015357600080fd5b506101806004803603602081101561016a57600080fd5b81019080803590602001909291905050506104e1565b604051808215151515815260200191505060405180910390f35b3480156101a657600080fd5b506101d3600480360360208110156101bd57600080fd5b810190808035906020019092919050505061050e565b6040518082815260200191505060405180910390f35b610221600480360360408110156101ff57600080fd5b81019080803590602001909291908035151590602001909291905050506105b0565b005b60008483604051602001808381526020018273ffffffffffffffffffffffffffffffffffffffff1673ffffffffffffffffffffffffffffffffffffffff1660601b815260140192505050604051602081830303815290604052805190602001209050806001600087815260200190815260200160002060030154141580156102c1575084600160008781526020019081526020016000206002015414155b610316576040517f08c379a00000000000000000000000000000000000000000000000000000000081526004018080602001828103825260358152602001806106a56035913960400191505060405180910390fd5b826001600087815260200190815260200160002060000160006101000a81548173ffffffffffffffffffffffffffffffffffffffff021916908373ffffffffffffffffffffffffffffffffffffffff160217905550836001600087815260200190815260200160002060010181905550846001600087815260200190815260200160002060020181905550806001600087815260200190815260200160002060030181905550816001600087815260200190815260200160002060040160006101000a81548160ff0219169083151502179055508115158373ffffffffffffffffffffffffffffffffffffffff16867f469f82e5159cc2abf67f29c3669f3f5d37a3ff390210215e71480856d6b83426876040518082815260200191505060405180910390a45050505050565b6000806000806001600086815260200190815260200160002060000160009054906101000a900473ffffffffffffffffffffffffffffffffffffffff16600160008781526020019081526020016000206001015460016000888152602001908152602001600020600301546001600089815260200190815260200160002060040160009054906101000a900460ff1693509350935093509193509193565b60006001600083815260200190815260200160002060040160009054906101000a900460ff169050919050565b60006001151561051d836104e1565b151514610592576040517f08c379a00000000000000000000000000000000000000000000000000000000081526004018080602001828103825260168152602001807f55736572206973206e6f7420726567697374657265640000000000000000000081525060200191505060405180910390fd5b60016000838152602001908152602001600020600101549050919050565b6000809054906101000a900473ffffffffffffffffffffffffffffffffffffffff1673ffffffffffffffffffffffffffffffffffffffff163373ffffffffffffffffffffffffffffffffffffffff1614610672576040517f08c379a000000000000000000000000000000000000000000000000000000000815260040180806020018281038252600c8152602001807f556e417568746f72697a6564000000000000000000000000000000000000000081525060200191505060405180910390fd5b806001600084815260200190815260200160002060040160006101000a81548160ff021916908315150217905550505056fe5573657220697320616c726561647920726567697374657265642077697468207468652070726f766964656420757365726e616d65a2646970667358221220436dad472e970859918dc908e662b9708627161251ea732e2a8f8570b4b5c32464736f6c63430006010033",
  "source": "/*\nThis Smart Contract provides an interface for user management component\nThis Smart Contract also implments functionality itself to keep the logic separate\n*/\n\npragma solidity >=0.4.22 < 0.7.0;\n\ninterface UserManagement{\n\n    function signUp(bytes32 _username, uint256 _publicKey, address _userAddress, bool _status) external payable;\n    function isUser(bytes32 _username) external view returns(bool);\n    function getPublicKey(bytes32 _username) external view returns(uint256);\n    function changeStatus(bytes32 _username, bool _status) external payable;\n}\n\ncontract User is UserManagement {\n\n    address _administrator;\n\n    constructor() public {\n        _administrator = msg.sender;\n    }\n\n    struct UserInformation{\n        address UserAddress;\n        uint256 publicKey;\n        bytes32 username;\n        bytes32 identifier;\n        bool status;\n    }\n\n    event userManipulated(bytes32 indexed email, address indexed userAddres, uint256 publicKey,bool indexed status);\n    event userNotRegistered(string message);\n\n    mapping(bytes32 => UserInformation)clients;\n\n    function signUp(bytes32 _username, uint256 _publicKey, address _userAddress, bool _status) public payable override\n    {\n        bytes32 id = keccak256(abi.encodePacked(_username, _userAddress));\n        require(clients[_username].identifier != id && clients[_username].username != _username, \"User is already registered with the provided username\");\n\n        clients[_username].UserAddress = _userAddress;\n        clients[_username].publicKey = _publicKey;\n        clients[_username].username = _username;\n        clients[_username].identifier = id;\n        clients[_username].status = _status;\n\n        emit userManipulated(_username, _userAddress, _publicKey, _status);\n    }\n\n    function getUser(bytes32 _username)public view returns(address _address, uint256 _pubKey, bytes32 _id, bool _status)\n    {\n        return(clients[_username].UserAddress, clients[_username].publicKey, clients[_username].identifier, clients[_username].status);\n    }\n\n    function isUser(bytes32 _username) public override view returns(bool result){\n        return clients[_username].status;\n    }\n\n    function getPublicKey(bytes32 _username) public override view returns(uint256)\n    {\n        require(isUser(_username) == true, \"User is not registered\");\n        return clients[_username].publicKey;\n    }\n\n    function changeStatus(bytes32 _username, bool _status) public payable override\n    {\n        require(msg.sender == _administrator, 'UnAuhtorized');\n        clients[_username].status = _status;\n    }\n}",
  "sourcePath": "/Users/muhammadtaimoor/Projects/Thesis/contracts/UserManagement.sol",
  "compiler": {
    "name": "solc",
    "version": "0.6.1+commit.e6f7d5a4.Emscripten.clang"
  },
  "schemaVersion": "3.0.23",
  "updatedAt": "2020-08-28T16:15:29.987Z",
  "devdoc": {
    "methods": {}
  },
  "userdoc": {
    "methods": {}
  }
}